{
  "abi": [
    {
      "inputs": [],
      "stateMutability": "nonpayable",
      "type": "constructor"
    },
    {
      "inputs": [
        {
          "internalType": "address",
          "name": "aggregator",
          "type": "address"
        },
        {
          "internalType": "uint80",
          "name": "firstRoundId",
          "type": "uint80"
        },
        {
          "internalType": "uint80",
          "name": "lastRoundId",
          "type": "uint80"
        }
      ],
      "name": "viewHistoricalPrices",
      "outputs": [
        {
          "internalType": "uint80[]",
          "name": "roundIds",
          "type": "uint80[]"
        },
        {
          "internalType": "int256[]",
          "name": "prices",
          "type": "int256[]"
        },
        {
          "internalType": "uint256[]",
          "name": "timestamps",
          "type": "uint256[]"
        }
      ],
      "stateMutability": "view",
      "type": "function"
    }
  ],
  "bytecode": {
    "object": "0x608060405234801561001057600080fd5b506104f8806100206000396000f3fe608060405234801561001057600080fd5b506004361061002b5760003560e01c8063efa4f4bd14610030575b600080fd5b61004361003e366004610292565b61005b565b60405161005293929190610324565b60405180910390f35b60608080600061006b86866103d1565b6100769060016103f8565b6001600160501b031690508067ffffffffffffffff81111561009a5761009a610418565b6040519080825280602002602001820160405280156100c3578160200160208202803683370190505b5093508067ffffffffffffffff8111156100df576100df610418565b604051908082528060200260200182016040528015610108578160200160208202803683370190505b5092508067ffffffffffffffff81111561012457610124610418565b60405190808252806020026020018201604052801561014d578160200160208202803683370190505b509150855b856001600160501b0316816001600160501b03161161026f57604051639a6fc8f560e01b81526001600160501b03821660048201526001600160a01b03891690639a6fc8f59060240160a060405180830381865afa1580156101b8573d6000803e3d6000fd5b505050506040513d601f19601f820116820180604052508101906101dc919061042e565b9091505087846001600160501b0316815181106101fb576101fb610486565b6020026020010187856001600160501b03168151811061021d5761021d610486565b6020026020010187866001600160501b03168151811061023f5761023f610486565b60209081029190910101929092529190526001600160501b039091169052806102678161049c565b915050610152565b505093509350939050565b6001600160501b038116811461028f57600080fd5b50565b6000806000606084860312156102a757600080fd5b83356001600160a01b03811681146102be57600080fd5b925060208401356102ce8161027a565b915060408401356102de8161027a565b809150509250925092565b600081518084526020808501945080840160005b83811015610319578151875295820195908201906001016102fd565b509495945050505050565b606080825284519082018190526000906020906080840190828801845b828110156103665781516001600160501b031684529284019290840190600101610341565b5050508381038285015285518082528683019183019060005b8181101561039b5783518352928401929184019160010161037f565b505084810360408601526103af81876102e9565b98975050505050505050565b634e487b7160e01b600052601160045260246000fd5b6001600160501b038281168282160390808211156103f1576103f16103bb565b5092915050565b6001600160501b038181168382160190808211156103f1576103f16103bb565b634e487b7160e01b600052604160045260246000fd5b600080600080600060a0868803121561044657600080fd5b85516104518161027a565b8095505060208601519350604086015192506060860151915060808601516104788161027a565b809150509295509295909350565b634e487b7160e01b600052603260045260246000fd5b60006001600160501b038083168181036104b8576104b86103bb565b600101939250505056fea264697066735822122058d8d63292b7b9b898a88a1d566460f0cb8fd5efa5eee74f5a9afc12a4e954a064736f6c63430008150033",
    "linkReferences": {}
  },
  "methodIdentifiers": {
    "viewHistoricalPrices(address,uint80,uint80)": "efa4f4bd"
  },
  "id": 9
}