{
  "abi": [
    {
      "inputs": [
        {
          "internalType": "address",
          "name": "_contractAddress",
          "type": "address"
        },
        {
          "internalType": "bytes32",
          "name": "_priceId",
          "type": "bytes32"
        }
      ],
      "stateMutability": "nonpayable",
      "type": "constructor"
    },
    {
      "anonymous": false,
      "inputs": [
        {
          "indexed": false,
          "internalType": "bytes",
          "name": "updata",
          "type": "bytes"
        },
        {
          "indexed": false,
          "internalType": "uint64",
          "name": "fixDate",
          "type": "uint64"
        }
      ],
      "name": "NewPrice",
      "type": "event"
    },
    {
      "anonymous": false,
      "inputs": [
        {
          "indexed": false,
          "internalType": "int64",
          "name": "price",
          "type": "int64"
        },
        {
          "indexed": false,
          "internalType": "uint256",
          "name": "publishTime",
          "type": "uint256"
        }
      ],
      "name": "ParsePriceFeedUpdates",
      "type": "event"
    },
    {
      "inputs": [
        {
          "internalType": "bytes",
          "name": "_pythUpdateData",
          "type": "bytes"
        },
        {
          "internalType": "uint64",
          "name": "_fixedDate",
          "type": "uint64"
        }
      ],
      "name": "parsePriceFeedUpdates",
      "outputs": [
        {
          "internalType": "int64",
          "name": "",
          "type": "int64"
        },
        {
          "internalType": "uint256",
          "name": "",
          "type": "uint256"
        }
      ],
      "stateMutability": "payable",
      "type": "function"
    },
    {
      "inputs": [],
      "name": "priceId",
      "outputs": [
        {
          "internalType": "bytes32",
          "name": "",
          "type": "bytes32"
        }
      ],
      "stateMutability": "view",
      "type": "function"
    },
    {
      "inputs": [],
      "name": "pyth",
      "outputs": [
        {
          "internalType": "contract IPyth",
          "name": "",
          "type": "address"
        }
      ],
      "stateMutability": "view",
      "type": "function"
    },
    {
      "inputs": [
        {
          "internalType": "bytes32",
          "name": "_priceId",
          "type": "bytes32"
        }
      ],
      "name": "setPriceId",
      "outputs": [],
      "stateMutability": "nonpayable",
      "type": "function"
    },
    {
      "inputs": [
        {
          "internalType": "address",
          "name": "_contractAddress",
          "type": "address"
        }
      ],
      "name": "setPythContract",
      "outputs": [],
      "stateMutability": "nonpayable",
      "type": "function"
    }
  ],
  "bytecode": {
    "object": "0x608060405234801561001057600080fd5b5060405161093438038061093483398101604081905261002f91610058565b600180546001600160a01b0319166001600160a01b039390931692909217909155600055610092565b6000806040838503121561006b57600080fd5b82516001600160a01b038116811461008257600080fd5b6020939093015192949293505050565b610893806100a16000396000f3fe60806040526004361061004a5760003560e01c8063311893341461004f57806333fbeb621461007857806347e0bef1146100b7578063ef71996b146100e4578063f98d06f014610104575b600080fd5b34801561005b57600080fd5b5061006560005481565b6040519081526020015b60405180910390f35b34801561008457600080fd5b506100b56100933660046103d2565b600180546001600160a01b0319166001600160a01b0392909216919091179055565b005b6100ca6100c536600461049b565b61013c565b6040805160079390930b835260208301919091520161006f565b3480156100f057600080fd5b506100b56100ff366004610541565b600055565b34801561011057600080fd5b50600154610124906001600160a01b031681565b6040516001600160a01b03909116815260200161006f565b604080516001808252818301909252600091829182916020808301908036833750506040805160018082528183019092529293506000929150602082015b606081526020019060019003908161017a579050509050600054826000815181106101a7576101a761055a565b60200260200101818152505085816000815181106101c7576101c761055a565b602090810291909101015260015460405163d47eed4560e01b81526000916001600160a01b03169063d47eed45906102039085906004016105f8565b602060405180830381865afa158015610220573d6000803e3d6000fd5b505050506040513d601f19601f82011682018060405250810190610244919061060b565b600154604051631df3cbc560e31b81529192506001600160a01b03169063ef9e5e289083906102779086906004016105f8565b6000604051808303818588803b15801561029057600080fd5b505af11580156102a4573d6000803e3d6000fd5b5050600154600093506001600160a01b03169150634716e9c590508385878b6102ce816005610624565b6040518663ffffffff1660e01b81526004016102ed949392919061065a565b60006040518083038185885af115801561030b573d6000803e3d6000fd5b50505050506040513d6000823e601f3d908101601f19168201604052610334919081019061075c565b6000815181106103465761034661055a565b60209081029190910101516001546000546040516331d98b3f60e01b815260048101919091529192506001600160a01b0316906331d98b3f90602401608060405180830381865afa15801561039f573d6000803e3d6000fd5b505050506040513d601f19601f820116820180604052508101906103c39190610841565b51989197509095505050505050565b6000602082840312156103e457600080fd5b81356001600160a01b03811681146103fb57600080fd5b9392505050565b634e487b7160e01b600052604160045260246000fd5b6040516060810167ffffffffffffffff8111828210171561043b5761043b610402565b60405290565b604051601f8201601f1916810167ffffffffffffffff8111828210171561046a5761046a610402565b604052919050565b67ffffffffffffffff8116811461048857600080fd5b50565b803561049681610472565b919050565b600080604083850312156104ae57600080fd5b823567ffffffffffffffff808211156104c657600080fd5b818501915085601f8301126104da57600080fd5b81356020828211156104ee576104ee610402565b610500601f8301601f19168201610441565b9250818352878183860101111561051657600080fd5b8181850182850137600081838501015282955061053481880161048b565b9450505050509250929050565b60006020828403121561055357600080fd5b5035919050565b634e487b7160e01b600052603260045260246000fd5b600082825180855260208086019550808260051b8401018186016000805b858110156105ea57601f1980888603018b5283518051808752845b818110156105c4578281018901518882018a015288016105a9565b5086810188018590529b87019b601f01909116909401850193509184019160010161058e565b509198975050505050505050565b6020815260006103fb6020830184610570565b60006020828403121561061d57600080fd5b5051919050565b67ffffffffffffffff81811683821601908082111561065357634e487b7160e01b600052601160045260246000fd5b5092915050565b60808152600061066d6080830187610570565b82810360208481019190915286518083528782019282019060005b818110156106a457845183529383019391830191600101610688565b505067ffffffffffffffff9687166040860152949095166060909301929092525090949350505050565b6000608082840312156106e057600080fd5b6040516080810181811067ffffffffffffffff8211171561070357610703610402565b806040525080915082518060070b811461071c57600080fd5b8152602083015161072c81610472565b60208201526040830151600381900b811461074657600080fd5b6040820152606092830151920191909152919050565b6000602080838503121561076f57600080fd5b825167ffffffffffffffff8082111561078757600080fd5b818501915085601f83011261079b57600080fd5b8151818111156107ad576107ad610402565b6107bb848260051b01610441565b81815284810192506101209182028401850191888311156107db57600080fd5b938501935b828510156108355780858a0312156107f85760008081fd5b610800610418565b855181526108108a8888016106ce565b878201526108218a60a088016106ce565b6040820152845293840193928501926107e0565b50979650505050505050565b60006080828403121561085357600080fd5b6103fb83836106ce56fea2646970667358221220868f5884b505e6e8d0b9076ca9dc283fd80f86b8dc08ea55ac407c26219f881964736f6c63430008150033",
    "linkReferences": {}
  },
  "methodIdentifiers": {
    "parsePriceFeedUpdates(bytes,uint64)": "47e0bef1",
    "priceId()": "31189334",
    "pyth()": "f98d06f0",
    "setPriceId(bytes32)": "ef71996b",
    "setPythContract(address)": "33fbeb62"
  },
  "id": 7
}