{
  "abi": [
    {
      "inputs": [
        {
          "internalType": "bytes32",
          "name": "value",
          "type": "bytes32"
        }
      ],
      "name": "contains",
      "outputs": [
        {
          "internalType": "bool",
          "name": "",
          "type": "bool"
        }
      ],
      "stateMutability": "view",
      "type": "function"
    },
    {
      "inputs": [
        {
          "internalType": "bytes32",
          "name": "value",
          "type": "bytes32"
        }
      ],
      "name": "decodeOrder",
      "outputs": [
        {
          "internalType": "uint32",
          "name": "",
          "type": "uint32"
        },
        {
          "internalType": "uint64",
          "name": "",
          "type": "uint64"
        },
        {
          "internalType": "address",
          "name": "",
          "type": "address"
        }
      ],
      "stateMutability": "pure",
      "type": "function"
    },
    {
      "inputs": [
        {
          "internalType": "uint32",
          "name": "payout",
          "type": "uint32"
        },
        {
          "internalType": "uint64",
          "name": "amount",
          "type": "uint64"
        },
        {
          "internalType": "address",
          "name": "user",
          "type": "address"
        }
      ],
      "name": "encodeOrder",
      "outputs": [
        {
          "internalType": "bytes32",
          "name": "",
          "type": "bytes32"
        }
      ],
      "stateMutability": "pure",
      "type": "function"
    },
    {
      "inputs": [],
      "name": "first",
      "outputs": [
        {
          "internalType": "bytes32",
          "name": "",
          "type": "bytes32"
        }
      ],
      "stateMutability": "view",
      "type": "function"
    },
    {
      "inputs": [],
      "name": "initializeEmptyList",
      "outputs": [],
      "stateMutability": "nonpayable",
      "type": "function"
    },
    {
      "inputs": [
        {
          "internalType": "bytes32",
          "name": "value",
          "type": "bytes32"
        }
      ],
      "name": "insert",
      "outputs": [
        {
          "internalType": "bool",
          "name": "",
          "type": "bool"
        }
      ],
      "stateMutability": "nonpayable",
      "type": "function"
    },
    {
      "inputs": [
        {
          "internalType": "bytes32",
          "name": "value",
          "type": "bytes32"
        },
        {
          "internalType": "bytes32",
          "name": "at",
          "type": "bytes32"
        }
      ],
      "name": "insertAt",
      "outputs": [
        {
          "internalType": "bool",
          "name": "",
          "type": "bool"
        }
      ],
      "stateMutability": "nonpayable",
      "type": "function"
    },
    {
      "inputs": [],
      "name": "isEmpty",
      "outputs": [
        {
          "internalType": "bool",
          "name": "",
          "type": "bool"
        }
      ],
      "stateMutability": "view",
      "type": "function"
    },
    {
      "inputs": [
        {
          "internalType": "bytes32",
          "name": "value",
          "type": "bytes32"
        }
      ],
      "name": "next",
      "outputs": [
        {
          "internalType": "bytes32",
          "name": "",
          "type": "bytes32"
        }
      ],
      "stateMutability": "view",
      "type": "function"
    },
    {
      "inputs": [
        {
          "internalType": "bytes32",
          "name": "value",
          "type": "bytes32"
        }
      ],
      "name": "nextMap",
      "outputs": [
        {
          "internalType": "bytes32",
          "name": "",
          "type": "bytes32"
        }
      ],
      "stateMutability": "view",
      "type": "function"
    },
    {
      "inputs": [
        {
          "internalType": "bytes32",
          "name": "value",
          "type": "bytes32"
        }
      ],
      "name": "prevMap",
      "outputs": [
        {
          "internalType": "bytes32",
          "name": "",
          "type": "bytes32"
        }
      ],
      "stateMutability": "view",
      "type": "function"
    },
    {
      "inputs": [
        {
          "internalType": "bytes32",
          "name": "value",
          "type": "bytes32"
        }
      ],
      "name": "remove",
      "outputs": [
        {
          "internalType": "bool",
          "name": "",
          "type": "bool"
        }
      ],
      "stateMutability": "nonpayable",
      "type": "function"
    },
    {
      "inputs": [
        {
          "internalType": "bytes32",
          "name": "value",
          "type": "bytes32"
        }
      ],
      "name": "removeKeepHistory",
      "outputs": [
        {
          "internalType": "bool",
          "name": "",
          "type": "bool"
        }
      ],
      "stateMutability": "nonpayable",
      "type": "function"
    },
    {
      "inputs": [
        {
          "internalType": "bytes32",
          "name": "orderLeft",
          "type": "bytes32"
        },
        {
          "internalType": "bytes32",
          "name": "orderRight",
          "type": "bytes32"
        }
      ],
      "name": "smallerThan",
      "outputs": [
        {
          "internalType": "bool",
          "name": "",
          "type": "bool"
        }
      ],
      "stateMutability": "pure",
      "type": "function"
    }
  ],
  "bytecode": {
    "object": "0x608060405234801561001057600080fd5b50610a44806100206000396000f3fe608060405234801561001057600080fd5b50600436106100ea5760003560e01c8063681fe70c1161008c578063b077006611610066578063b0770066146101fa578063cfbbb9db1461020d578063de853c401461026d578063e9f498dc146102be57600080fd5b8063681fe70c146101995780637414997a146101d457806395bc2673146101e757600080fd5b80631d1a696d116100c85780631d1a696d1461014b5780632d287e431461015e5780632dd39d71146101715780633df4ddf41461019157600080fd5b80630263eca8146100ef57806302d3af5b146101175780631787a5bf14610138575b600080fd5b6101026100fd3660046108d7565b6102de565b60405190151581526020015b60405180910390f35b61012a6101253660046108f9565b6102f3565b60405190815260200161010e565b6101026101463660046108d7565b6102ff565b6101026101593660046108f9565b61030c565b61010261016c3660046108f9565b610318565b61012a61017f3660046108f9565b60009081526020819052604090205490565b61012a610326565b600160009081526020527fada5013122d395ba3c54772283fb069b10426056ef8ca54750cb9bb552a59e7d546002600160601b031914610102565b61012a6101e2366004610912565b610337565b6101026101f53660046108f9565b61034e565b6101026102083660046108f9565b61035a565b61026b6002600160601b03197fada5013122d395ba3c54772283fb069b10426056ef8ca54750cb9bb552a59e7d819055600052600160208190527ff4bc8aebf86edf514bc70e0fe0619f1d21644f0c0f08bcb96b80d655e42a3cd155565b005b61028a61027b3660046108f9565b60e081901c9160a082901c9190565b6040805163ffffffff909416845267ffffffffffffffff90921660208401526001600160a01b03169082015260600161010e565b61012a6102cc3660046108f9565b60009081526001602052604090205490565b60006102ea8383610366565b90505b92915050565b60006102ed81836103c1565b60006102ea818484610498565b60006102ed81836106f6565b60006102ed81836001610498565b6000610332600061071f565b905090565b60006103448484846107a7565b90505b9392505050565b60006102ed81836107e6565b60006102ed8183610812565b600067ffffffffffffffff60a084811c8216919084901c1681811115610391576001925050506102ed565b806001600160601b0316826001600160601b031611156103b6576000925050506102ed565b506000949350505050565b60006001600160601b0382016104295760405162461bcd60e51b815260206004820152602260248201527f547279696e6720746f20676574206e657874206f66206c61737420656c656d656044820152611b9d60f21b60648201526084015b60405180910390fd5b600082815260208490526040902054806102ea5760405162461bcd60e51b815260206004820152602a60248201527f547279696e6720746f20676574206e657874206f66206e6f6e2d6578697374656044820152691b9d08195b195b595b9d60b21b6064820152608401610420565b6040805180820190915260208082527f757365723a2025732c207061796f75743a2025732c20616d6f756e743a2025739082015260009060e084901c9060a085901c9085906104f390828567ffffffffffffffff8616610867565b63ffffffff83166105465760405162461bcd60e51b815260206004820152601f60248201527f496e73657274696e67207a65726f206973206e6f7420737570706f72746564006044820152606401610420565b67ffffffffffffffff821661059d5760405162461bcd60e51b815260206004820152601f60248201527f496e73657274696e67207a65726f206973206e6f7420737570706f72746564006044820152606401610420565b600186148015906105b657506002600160601b03198614155b6106025760405162461bcd60e51b815260206004820152601e60248201527f496e73657274696e6720656c656d656e74206973206e6f742076616c696400006044820152606401610420565b61060c87876106f6565b1561061d5760009350505050610347565b6001851480159061063c57506000858152600188016020526040902054155b1561064d5760009350505050610347565b6106578587610366565b6106675760009350505050610347565b5b6000858152602088905260409020546106935760009485526001870160205260409094205493610668565b6000855b600081815260208a905260409020549091506106b38189610366565b61069757600082815260208a815260408083208b90558383526001808d0183528184208c90558b845281842095909555908b905290205593505050509392505050565b60006000198201610709575060006102ed565b5060009081526020919091526040902054151590565b60016000908152602082905260408120546002600160601b0319036107915760405162461bcd60e51b815260206004820152602260248201527f547279696e6720746f206765742066697273742066726f6d20656d7074792073604482015261195d60f21b6064820152608401610420565b5060016000908152602091909152604090205490565b60006001600160a01b0382166107dc67ffffffffffffffff60a01b60a086901b166001600160e01b031960e088901b1661097f565b610344919061097f565b6000806107f38484610812565b905080156102ea57600092835260019390930160205250604081205590565b600061081e83836106f6565b61082a575060006102ed565b5060008181526001838101602081815260408085205487835281862080548288528388208190558752938352908520559383529390925290915590565b6108b08484848460405160240161088194939291906109a0565b60408051601f198184030181529190526020810180516001600160e01b0316637c7a8d8f60e11b1790526108b6565b50505050565b60006a636f6e736f6c652e6c6f679050600080835160208501845afa505050565b600080604083850312156108ea57600080fd5b50508035926020909101359150565b60006020828403121561090b57600080fd5b5035919050565b60008060006060848603121561092757600080fd5b833563ffffffff8116811461093b57600080fd5b9250602084013567ffffffffffffffff8116811461095857600080fd5b915060408401356001600160a01b038116811461097457600080fd5b809150509250925092565b808201808211156102ed57634e487b7160e01b600052601160045260246000fd5b608081526000855180608084015260005b818110156109ce57602081890181015160a08684010152016109b1565b50600060a08285018101919091526001600160a01b039690961660208401526040830194909452506060810191909152601f909101601f1916010191905056fea264697066735822122022a005162e425c25f565b162e331977bda2e7facceba9979705c0b9f60440e1564736f6c63430008150033",
    "linkReferences": {}
  },
  "methodIdentifiers": {
    "contains(bytes32)": "1d1a696d",
    "decodeOrder(bytes32)": "de853c40",
    "encodeOrder(uint32,uint64,address)": "7414997a",
    "first()": "3df4ddf4",
    "initializeEmptyList()": "cfbbb9db",
    "insert(bytes32)": "2d287e43",
    "insertAt(bytes32,bytes32)": "1787a5bf",
    "isEmpty()": "681fe70c",
    "next(bytes32)": "02d3af5b",
    "nextMap(bytes32)": "2dd39d71",
    "prevMap(bytes32)": "e9f498dc",
    "remove(bytes32)": "95bc2673",
    "removeKeepHistory(bytes32)": "b0770066",
    "smallerThan(bytes32,bytes32)": "0263eca8"
  },
  "id": 5
}