{
  "abi": [
    {
      "inputs": [
        {
          "internalType": "address",
          "name": "_token",
          "type": "address"
        },
        {
          "internalType": "address",
          "name": "_oracleAddress",
          "type": "address"
        },
        {
          "internalType": "address",
          "name": "_adminAddress",
          "type": "address"
        },
        {
          "internalType": "address",
          "name": "_operatorAddress",
          "type": "address"
        },
        {
          "internalType": "address",
          "name": "_operatorVaultAddress",
          "type": "address"
        },
        {
          "internalType": "uint256",
          "name": "_commissionfee",
          "type": "uint256"
        },
        {
          "internalType": "bytes32",
          "name": "_priceId",
          "type": "bytes32"
        }
      ],
      "stateMutability": "nonpayable",
      "type": "constructor"
    },
    {
      "anonymous": false,
      "inputs": [
        {
          "indexed": true,
          "internalType": "address",
          "name": "sender",
          "type": "address"
        },
        {
          "indexed": true,
          "internalType": "uint256",
          "name": "epoch",
          "type": "uint256"
        },
        {
          "indexed": false,
          "internalType": "enum StVol.Position",
          "name": "position",
          "type": "uint8"
        },
        {
          "indexed": false,
          "internalType": "uint256",
          "name": "amount",
          "type": "uint256"
        }
      ],
      "name": "Claim",
      "type": "event"
    },
    {
      "anonymous": false,
      "inputs": [
        {
          "indexed": true,
          "internalType": "uint256",
          "name": "epoch",
          "type": "uint256"
        },
        {
          "indexed": false,
          "internalType": "int256",
          "name": "price",
          "type": "int256"
        }
      ],
      "name": "EndRound",
      "type": "event"
    },
    {
      "anonymous": false,
      "inputs": [
        {
          "indexed": true,
          "internalType": "uint256",
          "name": "epoch",
          "type": "uint256"
        },
        {
          "indexed": false,
          "internalType": "int256",
          "name": "strategyRate",
          "type": "int256"
        },
        {
          "indexed": false,
          "internalType": "enum StVol.StrategyType",
          "name": "strategyType",
          "type": "uint8"
        }
      ],
      "name": "OpenRound",
      "type": "event"
    },
    {
      "anonymous": false,
      "inputs": [
        {
          "indexed": true,
          "internalType": "address",
          "name": "previousOwner",
          "type": "address"
        },
        {
          "indexed": true,
          "internalType": "address",
          "name": "newOwner",
          "type": "address"
        }
      ],
      "name": "OwnershipTransferred",
      "type": "event"
    },
    {
      "anonymous": false,
      "inputs": [
        {
          "indexed": true,
          "internalType": "address",
          "name": "sender",
          "type": "address"
        },
        {
          "indexed": true,
          "internalType": "uint256",
          "name": "epoch",
          "type": "uint256"
        },
        {
          "indexed": false,
          "internalType": "uint256",
          "name": "amount",
          "type": "uint256"
        },
        {
          "indexed": false,
          "internalType": "uint256",
          "name": "payout",
          "type": "uint256"
        },
        {
          "indexed": false,
          "internalType": "uint256",
          "name": "placeTimestamp",
          "type": "uint256"
        },
        {
          "indexed": false,
          "internalType": "enum StVol.Position",
          "name": "position",
          "type": "uint8"
        },
        {
          "indexed": false,
          "internalType": "enum StVol.LimitOrderStatus",
          "name": "status",
          "type": "uint8"
        }
      ],
      "name": "ParticipateLimitOrder",
      "type": "event"
    },
    {
      "anonymous": false,
      "inputs": [
        {
          "indexed": true,
          "internalType": "address",
          "name": "sender",
          "type": "address"
        },
        {
          "indexed": true,
          "internalType": "uint256",
          "name": "epoch",
          "type": "uint256"
        },
        {
          "indexed": false,
          "internalType": "uint256",
          "name": "amount",
          "type": "uint256"
        }
      ],
      "name": "ParticipateOver",
      "type": "event"
    },
    {
      "anonymous": false,
      "inputs": [
        {
          "indexed": true,
          "internalType": "address",
          "name": "sender",
          "type": "address"
        },
        {
          "indexed": true,
          "internalType": "uint256",
          "name": "epoch",
          "type": "uint256"
        },
        {
          "indexed": false,
          "internalType": "uint256",
          "name": "amount",
          "type": "uint256"
        }
      ],
      "name": "ParticipateUnder",
      "type": "event"
    },
    {
      "anonymous": false,
      "inputs": [
        {
          "indexed": false,
          "internalType": "address",
          "name": "account",
          "type": "address"
        }
      ],
      "name": "Paused",
      "type": "event"
    },
    {
      "anonymous": false,
      "inputs": [
        {
          "indexed": true,
          "internalType": "uint256",
          "name": "epoch",
          "type": "uint256"
        },
        {
          "indexed": false,
          "internalType": "uint256",
          "name": "rewardBaseCalAmount",
          "type": "uint256"
        },
        {
          "indexed": false,
          "internalType": "uint256",
          "name": "rewardAmount",
          "type": "uint256"
        },
        {
          "indexed": false,
          "internalType": "uint256",
          "name": "treasuryAmount",
          "type": "uint256"
        }
      ],
      "name": "RewardsCalculated",
      "type": "event"
    },
    {
      "anonymous": false,
      "inputs": [
        {
          "indexed": true,
          "internalType": "uint256",
          "name": "epoch",
          "type": "uint256"
        },
        {
          "indexed": false,
          "internalType": "int256",
          "name": "price",
          "type": "int256"
        }
      ],
      "name": "StartRound",
      "type": "event"
    },
    {
      "anonymous": false,
      "inputs": [
        {
          "indexed": false,
          "internalType": "address",
          "name": "account",
          "type": "address"
        }
      ],
      "name": "Unpaused",
      "type": "event"
    },
    {
      "inputs": [],
      "name": "BASE",
      "outputs": [
        {
          "internalType": "uint256",
          "name": "",
          "type": "uint256"
        }
      ],
      "stateMutability": "view",
      "type": "function"
    },
    {
      "inputs": [],
      "name": "DEFAULT_BUFFER_SECONDS",
      "outputs": [
        {
          "internalType": "uint256",
          "name": "",
          "type": "uint256"
        }
      ],
      "stateMutability": "view",
      "type": "function"
    },
    {
      "inputs": [],
      "name": "DEFAULT_INTERVAL_SECONDS",
      "outputs": [
        {
          "internalType": "uint256",
          "name": "",
          "type": "uint256"
        }
      ],
      "stateMutability": "view",
      "type": "function"
    },
    {
      "inputs": [],
      "name": "DEFAULT_MIN_PARTICIPATE_AMOUNT",
      "outputs": [
        {
          "internalType": "uint256",
          "name": "",
          "type": "uint256"
        }
      ],
      "stateMutability": "view",
      "type": "function"
    },
    {
      "inputs": [],
      "name": "MAX_COMMISSION_FEE",
      "outputs": [
        {
          "internalType": "uint256",
          "name": "",
          "type": "uint256"
        }
      ],
      "stateMutability": "view",
      "type": "function"
    },
    {
      "inputs": [],
      "name": "adminAddress",
      "outputs": [
        {
          "internalType": "address",
          "name": "",
          "type": "address"
        }
      ],
      "stateMutability": "view",
      "type": "function"
    },
    {
      "inputs": [],
      "name": "bufferSeconds",
      "outputs": [
        {
          "internalType": "uint256",
          "name": "",
          "type": "uint256"
        }
      ],
      "stateMutability": "view",
      "type": "function"
    },
    {
      "inputs": [
        {
          "internalType": "uint256",
          "name": "epoch",
          "type": "uint256"
        },
        {
          "internalType": "enum StVol.Position",
          "name": "position",
          "type": "uint8"
        },
        {
          "internalType": "uint256",
          "name": "blockTimestamp",
          "type": "uint256"
        },
        {
          "internalType": "uint256",
          "name": "amount",
          "type": "uint256"
        }
      ],
      "name": "cancelLimitOrder",
      "outputs": [],
      "stateMutability": "nonpayable",
      "type": "function"
    },
    {
      "inputs": [
        {
          "internalType": "uint256",
          "name": "epoch",
          "type": "uint256"
        },
        {
          "internalType": "enum StVol.Position",
          "name": "position",
          "type": "uint8"
        }
      ],
      "name": "claim",
      "outputs": [],
      "stateMutability": "nonpayable",
      "type": "function"
    },
    {
      "inputs": [],
      "name": "claimAll",
      "outputs": [],
      "stateMutability": "nonpayable",
      "type": "function"
    },
    {
      "inputs": [],
      "name": "claimTreasury",
      "outputs": [],
      "stateMutability": "nonpayable",
      "type": "function"
    },
    {
      "inputs": [
        {
          "internalType": "uint256",
          "name": "epoch",
          "type": "uint256"
        },
        {
          "internalType": "enum StVol.Position",
          "name": "position",
          "type": "uint8"
        },
        {
          "internalType": "address",
          "name": "user",
          "type": "address"
        }
      ],
      "name": "claimable",
      "outputs": [
        {
          "internalType": "bool",
          "name": "",
          "type": "bool"
        }
      ],
      "stateMutability": "view",
      "type": "function"
    },
    {
      "inputs": [],
      "name": "commissionfee",
      "outputs": [
        {
          "internalType": "uint256",
          "name": "",
          "type": "uint256"
        }
      ],
      "stateMutability": "view",
      "type": "function"
    },
    {
      "inputs": [],
      "name": "currentEpoch",
      "outputs": [
        {
          "internalType": "uint256",
          "name": "",
          "type": "uint256"
        }
      ],
      "stateMutability": "view",
      "type": "function"
    },
    {
      "inputs": [
        {
          "internalType": "bytes[]",
          "name": "priceUpdateData",
          "type": "bytes[]"
        },
        {
          "internalType": "uint64",
          "name": "initDate",
          "type": "uint64"
        },
        {
          "internalType": "bool",
          "name": "isFixed",
          "type": "bool"
        }
      ],
      "name": "executeRound",
      "outputs": [],
      "stateMutability": "payable",
      "type": "function"
    },
    {
      "inputs": [],
      "name": "genesisOpenOnce",
      "outputs": [
        {
          "internalType": "bool",
          "name": "",
          "type": "bool"
        }
      ],
      "stateMutability": "view",
      "type": "function"
    },
    {
      "inputs": [
        {
          "internalType": "uint256",
          "name": "initDate",
          "type": "uint256"
        }
      ],
      "name": "genesisOpenRound",
      "outputs": [],
      "stateMutability": "nonpayable",
      "type": "function"
    },
    {
      "inputs": [],
      "name": "genesisStartOnce",
      "outputs": [
        {
          "internalType": "bool",
          "name": "",
          "type": "bool"
        }
      ],
      "stateMutability": "view",
      "type": "function"
    },
    {
      "inputs": [
        {
          "internalType": "bytes[]",
          "name": "priceUpdateData",
          "type": "bytes[]"
        },
        {
          "internalType": "uint64",
          "name": "initDate",
          "type": "uint64"
        },
        {
          "internalType": "bool",
          "name": "isFixed",
          "type": "bool"
        }
      ],
      "name": "genesisStartRound",
      "outputs": [],
      "stateMutability": "payable",
      "type": "function"
    },
    {
      "inputs": [],
      "name": "intervalSeconds",
      "outputs": [
        {
          "internalType": "uint256",
          "name": "",
          "type": "uint256"
        }
      ],
      "stateMutability": "view",
      "type": "function"
    },
    {
      "inputs": [],
      "name": "lastCommittedPublishTime",
      "outputs": [
        {
          "internalType": "uint256",
          "name": "",
          "type": "uint256"
        }
      ],
      "stateMutability": "view",
      "type": "function"
    },
    {
      "inputs": [
        {
          "internalType": "uint256",
          "name": "",
          "type": "uint256"
        },
        {
          "internalType": "enum StVol.Position",
          "name": "",
          "type": "uint8"
        },
        {
          "internalType": "address",
          "name": "",
          "type": "address"
        }
      ],
      "name": "ledger",
      "outputs": [
        {
          "internalType": "enum StVol.Position",
          "name": "position",
          "type": "uint8"
        },
        {
          "internalType": "uint256",
          "name": "amount",
          "type": "uint256"
        },
        {
          "internalType": "bool",
          "name": "claimed",
          "type": "bool"
        }
      ],
      "stateMutability": "view",
      "type": "function"
    },
    {
      "inputs": [],
      "name": "operatorAddress",
      "outputs": [
        {
          "internalType": "address",
          "name": "",
          "type": "address"
        }
      ],
      "stateMutability": "view",
      "type": "function"
    },
    {
      "inputs": [],
      "name": "operatorVaultAddress",
      "outputs": [
        {
          "internalType": "address",
          "name": "",
          "type": "address"
        }
      ],
      "stateMutability": "view",
      "type": "function"
    },
    {
      "inputs": [],
      "name": "oracle",
      "outputs": [
        {
          "internalType": "contract IPyth",
          "name": "",
          "type": "address"
        }
      ],
      "stateMutability": "view",
      "type": "function"
    },
    {
      "inputs": [
        {
          "internalType": "uint256",
          "name": "",
          "type": "uint256"
        },
        {
          "internalType": "uint256",
          "name": "",
          "type": "uint256"
        }
      ],
      "name": "overLimitOrders",
      "outputs": [
        {
          "internalType": "address",
          "name": "user",
          "type": "address"
        },
        {
          "internalType": "uint256",
          "name": "payout",
          "type": "uint256"
        },
        {
          "internalType": "uint256",
          "name": "amount",
          "type": "uint256"
        },
        {
          "internalType": "uint256",
          "name": "blockTimestamp",
          "type": "uint256"
        },
        {
          "internalType": "enum StVol.LimitOrderStatus",
          "name": "status",
          "type": "uint8"
        }
      ],
      "stateMutability": "view",
      "type": "function"
    },
    {
      "inputs": [],
      "name": "owner",
      "outputs": [
        {
          "internalType": "address",
          "name": "",
          "type": "address"
        }
      ],
      "stateMutability": "view",
      "type": "function"
    },
    {
      "inputs": [],
      "name": "participantRate",
      "outputs": [
        {
          "internalType": "uint256",
          "name": "",
          "type": "uint256"
        }
      ],
      "stateMutability": "view",
      "type": "function"
    },
    {
      "inputs": [
        {
          "internalType": "uint256",
          "name": "epoch",
          "type": "uint256"
        },
        {
          "internalType": "uint256",
          "name": "_amount",
          "type": "uint256"
        },
        {
          "internalType": "uint256",
          "name": "_payout",
          "type": "uint256"
        }
      ],
      "name": "participateLimitOver",
      "outputs": [],
      "stateMutability": "nonpayable",
      "type": "function"
    },
    {
      "inputs": [
        {
          "internalType": "uint256",
          "name": "epoch",
          "type": "uint256"
        },
        {
          "internalType": "uint256",
          "name": "_amount",
          "type": "uint256"
        },
        {
          "internalType": "uint256",
          "name": "_payout",
          "type": "uint256"
        }
      ],
      "name": "participateLimitUnder",
      "outputs": [],
      "stateMutability": "nonpayable",
      "type": "function"
    },
    {
      "inputs": [
        {
          "internalType": "uint256",
          "name": "epoch",
          "type": "uint256"
        },
        {
          "internalType": "uint256",
          "name": "_amount",
          "type": "uint256"
        }
      ],
      "name": "participateOver",
      "outputs": [],
      "stateMutability": "nonpayable",
      "type": "function"
    },
    {
      "inputs": [
        {
          "internalType": "uint256",
          "name": "epoch",
          "type": "uint256"
        },
        {
          "internalType": "uint256",
          "name": "_amount",
          "type": "uint256"
        }
      ],
      "name": "participateUnder",
      "outputs": [],
      "stateMutability": "nonpayable",
      "type": "function"
    },
    {
      "inputs": [],
      "name": "pause",
      "outputs": [],
      "stateMutability": "nonpayable",
      "type": "function"
    },
    {
      "inputs": [],
      "name": "paused",
      "outputs": [
        {
          "internalType": "bool",
          "name": "",
          "type": "bool"
        }
      ],
      "stateMutability": "view",
      "type": "function"
    },
    {
      "inputs": [],
      "name": "priceId",
      "outputs": [
        {
          "internalType": "bytes32",
          "name": "",
          "type": "bytes32"
        }
      ],
      "stateMutability": "view",
      "type": "function"
    },
    {
      "inputs": [
        {
          "internalType": "address",
          "name": "_user",
          "type": "address"
        }
      ],
      "name": "redeemAll",
      "outputs": [],
      "stateMutability": "nonpayable",
      "type": "function"
    },
    {
      "inputs": [
        {
          "internalType": "uint256",
          "name": "epoch",
          "type": "uint256"
        },
        {
          "internalType": "enum StVol.Position",
          "name": "position",
          "type": "uint8"
        },
        {
          "internalType": "address",
          "name": "user",
          "type": "address"
        }
      ],
      "name": "refundable",
      "outputs": [
        {
          "internalType": "bool",
          "name": "",
          "type": "bool"
        }
      ],
      "stateMutability": "view",
      "type": "function"
    },
    {
      "inputs": [],
      "name": "renounceOwnership",
      "outputs": [],
      "stateMutability": "nonpayable",
      "type": "function"
    },
    {
      "inputs": [
        {
          "internalType": "uint256",
          "name": "",
          "type": "uint256"
        }
      ],
      "name": "rounds",
      "outputs": [
        {
          "internalType": "uint256",
          "name": "epoch",
          "type": "uint256"
        },
        {
          "internalType": "uint256",
          "name": "openTimestamp",
          "type": "uint256"
        },
        {
          "internalType": "uint256",
          "name": "startTimestamp",
          "type": "uint256"
        },
        {
          "internalType": "uint256",
          "name": "closeTimestamp",
          "type": "uint256"
        },
        {
          "internalType": "int256",
          "name": "startPrice",
          "type": "int256"
        },
        {
          "internalType": "int256",
          "name": "closePrice",
          "type": "int256"
        },
        {
          "internalType": "uint256",
          "name": "startOracleId",
          "type": "uint256"
        },
        {
          "internalType": "uint256",
          "name": "closeOracleId",
          "type": "uint256"
        },
        {
          "internalType": "uint256",
          "name": "totalAmount",
          "type": "uint256"
        },
        {
          "internalType": "uint256",
          "name": "overAmount",
          "type": "uint256"
        },
        {
          "internalType": "uint256",
          "name": "underAmount",
          "type": "uint256"
        },
        {
          "internalType": "uint256",
          "name": "rewardBaseCalAmount",
          "type": "uint256"
        },
        {
          "internalType": "uint256",
          "name": "rewardAmount",
          "type": "uint256"
        },
        {
          "internalType": "bool",
          "name": "oracleCalled",
          "type": "bool"
        }
      ],
      "stateMutability": "view",
      "type": "function"
    },
    {
      "inputs": [
        {
          "internalType": "address",
          "name": "_adminAddress",
          "type": "address"
        }
      ],
      "name": "setAdmin",
      "outputs": [],
      "stateMutability": "nonpayable",
      "type": "function"
    },
    {
      "inputs": [
        {
          "internalType": "uint256",
          "name": "_bufferSeconds",
          "type": "uint256"
        },
        {
          "internalType": "uint256",
          "name": "_intervalSeconds",
          "type": "uint256"
        }
      ],
      "name": "setBufferAndIntervalSeconds",
      "outputs": [],
      "stateMutability": "nonpayable",
      "type": "function"
    },
    {
      "inputs": [
        {
          "internalType": "uint256",
          "name": "_commissionfee",
          "type": "uint256"
        }
      ],
      "name": "setCommissionfee",
      "outputs": [],
      "stateMutability": "nonpayable",
      "type": "function"
    },
    {
      "inputs": [
        {
          "internalType": "address",
          "name": "_operatorAddress",
          "type": "address"
        }
      ],
      "name": "setOperator",
      "outputs": [],
      "stateMutability": "nonpayable",
      "type": "function"
    },
    {
      "inputs": [
        {
          "internalType": "address",
          "name": "_operatorVaultAddress",
          "type": "address"
        }
      ],
      "name": "setOperatorVault",
      "outputs": [],
      "stateMutability": "nonpayable",
      "type": "function"
    },
    {
      "inputs": [
        {
          "internalType": "address",
          "name": "_oracle",
          "type": "address"
        }
      ],
      "name": "setOracle",
      "outputs": [],
      "stateMutability": "nonpayable",
      "type": "function"
    },
    {
      "inputs": [],
      "name": "strategyRate",
      "outputs": [
        {
          "internalType": "int256",
          "name": "",
          "type": "int256"
        }
      ],
      "stateMutability": "view",
      "type": "function"
    },
    {
      "inputs": [],
      "name": "strategyType",
      "outputs": [
        {
          "internalType": "enum StVol.StrategyType",
          "name": "",
          "type": "uint8"
        }
      ],
      "stateMutability": "view",
      "type": "function"
    },
    {
      "inputs": [],
      "name": "token",
      "outputs": [
        {
          "internalType": "contract IERC20",
          "name": "",
          "type": "address"
        }
      ],
      "stateMutability": "view",
      "type": "function"
    },
    {
      "inputs": [
        {
          "internalType": "address",
          "name": "newOwner",
          "type": "address"
        }
      ],
      "name": "transferOwnership",
      "outputs": [],
      "stateMutability": "nonpayable",
      "type": "function"
    },
    {
      "inputs": [],
      "name": "treasuryAmount",
      "outputs": [
        {
          "internalType": "uint256",
          "name": "",
          "type": "uint256"
        }
      ],
      "stateMutability": "view",
      "type": "function"
    },
    {
      "inputs": [
        {
          "internalType": "uint256",
          "name": "",
          "type": "uint256"
        },
        {
          "internalType": "uint256",
          "name": "",
          "type": "uint256"
        }
      ],
      "name": "underLimitOrders",
      "outputs": [
        {
          "internalType": "address",
          "name": "user",
          "type": "address"
        },
        {
          "internalType": "uint256",
          "name": "payout",
          "type": "uint256"
        },
        {
          "internalType": "uint256",
          "name": "amount",
          "type": "uint256"
        },
        {
          "internalType": "uint256",
          "name": "blockTimestamp",
          "type": "uint256"
        },
        {
          "internalType": "enum StVol.LimitOrderStatus",
          "name": "status",
          "type": "uint8"
        }
      ],
      "stateMutability": "view",
      "type": "function"
    },
    {
      "inputs": [],
      "name": "unpause",
      "outputs": [],
      "stateMutability": "nonpayable",
      "type": "function"
    },
    {
      "inputs": [
        {
          "internalType": "address",
          "name": "",
          "type": "address"
        },
        {
          "internalType": "uint256",
          "name": "",
          "type": "uint256"
        }
      ],
      "name": "userRounds",
      "outputs": [
        {
          "internalType": "uint256",
          "name": "",
          "type": "uint256"
        }
      ],
      "stateMutability": "view",
      "type": "function"
    }
  ],
  "bytecode": {
    "object": "0x60a06040526002805461ffff60a01b191690553480156200001f57600080fd5b506040516200568a3803806200568a833981016040819052620000429162000261565b86868686868660646001886200005833620001f4565b6000805460ff60a01b191690556001805560c8841115620000a65760405162461bcd60e51b8152602060048201526003602482015262114c0d60ea1b60448201526064015b60405180910390fd5b600083131562000102576000826002811115620000c757620000c7620002e4565b03620000fc5760405162461bcd60e51b815260206004820152600360248201526245303560e81b60448201526064016200009d565b6200014e565b6000826002811115620001195762000119620002e4565b146200014e5760405162461bcd60e51b815260206004820152600360248201526222981b60e91b60448201526064016200009d565b6001600160a01b03898116608052600280546001600160a01b03199081168b84161782556004805482168b85161790556005805482168a851617905560068054909116928816929092179091556009859055600c849055600d8054849260ff19909116906001908490811115620001c957620001c9620002e4565b0217905550600355505062015180600855505061025860075550620002fa9950505050505050505050565b600080546001600160a01b038381166001600160a01b0319831681178455604051919092169283917f8be0079c531659141344cd1fd0a4f28419497f9722a3daafe3b4186f6b6457e09190a35050565b80516001600160a01b03811681146200025c57600080fd5b919050565b600080600080600080600060e0888a0312156200027d57600080fd5b620002888862000244565b9650620002986020890162000244565b9550620002a86040890162000244565b9450620002b86060890162000244565b9350620002c86080890162000244565b925060a0880151915060c0880151905092959891949750929550565b634e487b7160e01b600052602160045260246000fd5b6080516153356200035560003960008181610a1e01528181610ab5015281816110c60152818161128e0152818161170c01528181611c7401528181611d850152818161216a01528181613417015261457801526153356000f3fe6080604052600436106103195760003560e01c8063841ab068116101ab578063be399be5116100f7578063eae0157311610095578063f2fde38b1161006f578063f2fde38b146109cb578063f7fdec28146109eb578063fc0c546a14610a0c578063fc6f946814610a4057600080fd5b8063eae015731461097e578063ec342ad01461099e578063f0260072146109b457600080fd5b8063d1058e59116100d1578063d1058e5914610913578063dd1f759614610928578063ea92a7c514610948578063eaba23611461096857600080fd5b8063be399be5146108b3578063c0183c3e146108d3578063c894b51e146108f357600080fd5b80639fb7738611610164578063ae66e52f1161013e578063ae66e52f14610845578063b3ab15fb1461085c578063bc18639c1461087c578063be2c5afb1461089d57600080fd5b80639fb77386146107f2578063a7dd313914610805578063a9f502951461082557600080fd5b8063841ab068146106745780638456cb5914610694578063890dc766146106a957806389d04c9f146106c95780638c65c81f146106df5780638da5cb5b146107d457600080fd5b80635dc6b0221161026a5780637adbf973116102235780637dc0d1d0116101fd5780637dc0d1d0146105fa578063810174921461061a5780638170e9691461062d57806382ccd3301461064d57600080fd5b80637adbf973146105ae5780637b6c0e12146105ce5780637d1cd04f146105e457600080fd5b80635dc6b0221461050d57806365b67b8f1461052d578063688a1d8d1461054d578063704b6c0214610563578063715018a614610583578063766718081461059857600080fd5b80632bcc5f94116102d7578063368acb09116102b1578063368acb09146104a35780633f4ba83a146104b95780634c92b255146104ce5780635c975abb146104ee57600080fd5b80632bcc5f941461043c5780632faf3ea61461046d578063311893341461048d57600080fd5b80623bdc741461031e57806310e69d9614610335578063127effb21461036a5780631978804b146103a257806319f078c2146104035780632a8b5a3014610426575b600080fd5b34801561032a57600080fd5b50610333610a60565b005b34801561034157600080fd5b50610355610350366004614916565b610aea565b60405190151581526020015b60405180910390f35b34801561037657600080fd5b5060055461038a906001600160a01b031681565b6040516001600160a01b039091168152602001610361565b3480156103ae57600080fd5b506103f46103bd366004614916565b601260209081526000938452604080852082529284528284209052825290208054600182015460029092015460ff91821692911683565b6040516103619392919061497c565b34801561040f57600080fd5b5061041860c881565b604051908152602001610361565b34801561043257600080fd5b50610418600f5481565b34801561044857600080fd5b5061045c6104573660046149a0565b610d26565b6040516103619594939291906149d2565b34801561047957600080fd5b50610333610488366004614a10565b610d81565b34801561049957600080fd5b5061041860035481565b3480156104af57600080fd5b50610418600a5481565b3480156104c557600080fd5b506103336110fc565b3480156104da57600080fd5b506103336104e9366004614a3c565b611144565b3480156104fa57600080fd5b50600054600160a01b900460ff16610355565b34801561051957600080fd5b50610333610528366004614a55565b6111b2565b34801561053957600080fd5b50610333610548366004614a81565b6113b3565b34801561055957600080fd5b50610418600b5481565b34801561056f57600080fd5b5061033361057e366004614a81565b611425565b34801561058f57600080fd5b50610333611475565b3480156105a457600080fd5b50610418600e5481565b3480156105ba57600080fd5b506103336105c9366004614a81565b611487565b3480156105da57600080fd5b5061041860095481565b3480156105f057600080fd5b5061041860085481565b34801561060657600080fd5b5060025461038a906001600160a01b031681565b610333610628366004614ac7565b611501565b34801561063957600080fd5b506103336106483660046149a0565b611667565b34801561065957600080fd5b50600d546106679060ff1681565b6040516103619190614b5e565b34801561068057600080fd5b5061045c61068f3660046149a0565b61174a565b3480156106a057600080fd5b50610333611766565b3480156106b557600080fd5b506103336106c43660046149a0565b6117a0565b3480156106d557600080fd5b50610418600c5481565b3480156106eb57600080fd5b5061076a6106fa366004614a3c565b601360205260009081526040902080546001820154600283015460038401546004850154600586015460068701546007880154600889015460098a0154600a8b0154600b8c0154600c8d0154600d909d01549b9c9a9b999a98999798969795969495939492939192909160ff168e565b604080519e8f5260208f019d909d529b8d019a909a5260608c019890985260808b019690965260a08a019490945260c089019290925260e088015261010087015261012086015261014085015261016084015261018083015215156101a08201526101c001610361565b3480156107e057600080fd5b506000546001600160a01b031661038a565b610333610800366004614ac7565b611812565b34801561081157600080fd5b50610333610820366004614a3c565b611965565b34801561083157600080fd5b50610355610840366004614916565b611a0a565b34801561085157600080fd5b50610418620f424081565b34801561086857600080fd5b50610333610877366004614a81565b611b1f565b34801561088857600080fd5b5060025461035590600160a01b900460ff1681565b3480156108a957600080fd5b5061041861025881565b3480156108bf57600080fd5b506103336108ce366004614a81565b611b91565b3480156108df57600080fd5b506103336108ee3660046149a0565b611bcf565b3480156108ff57600080fd5b5061033361090e366004614a55565b611ca9565b34801561091f57600080fd5b50610333611e94565b34801561093457600080fd5b50610418610943366004614b71565b611ecd565b34801561095457600080fd5b5060065461038a906001600160a01b031681565b34801561097457600080fd5b5061041860075481565b34801561098a57600080fd5b50610333610999366004614b9b565b611efe565b3480156109aa57600080fd5b5061041861271081565b3480156109c057600080fd5b506104186201518081565b3480156109d757600080fd5b506103336109e6366004614a81565b612510565b3480156109f757600080fd5b5060025461035590600160a81b900460ff1681565b348015610a1857600080fd5b5061038a7f000000000000000000000000000000000000000000000000000000000000000081565b348015610a4c57600080fd5b5060045461038a906001600160a01b031681565b610a68612586565b6004546001600160a01b03163314610a9b5760405162461bcd60e51b8152600401610a9290614bd6565b60405180910390fd5b600a80546000909155600654610ade906001600160a01b037f000000000000000000000000000000000000000000000000000000000000000081169116836125df565b50610ae860018055565b565b6000838152601260205260408120819081856001811115610b0d57610b0d614952565b6001811115610b1e57610b1e614952565b8152602080820192909252604090810160009081206001600160a01b0387168252909252908190208151606081019092528054829060ff166001811115610b6757610b67614952565b6001811115610b7857610b78614952565b815260018281015460208084019190915260029384015460ff908116151560409485015260008b81526013835284812085516101c08101875281548152948101549385019390935294820154938301939093526003810154606083015260048101546080830152600581015460a0830152600681015460c0830152600781015460e0830152600881015461010083015260098101546101208301819052600a820154610140840152600b820154610160840152600c820154610180840152600d9091015490921615156101a082015292935015801590610c5d57506000826101400151115b15610ceb57610c6f8260800151612642565b8260a00151138015610c935750600083516001811115610c9157610c91614952565b145b80610cca5750610ca68260800151612642565b8260a00151128015610cca5750600183516001811115610cc857610cc8614952565b145b80610ce45750610cdd8260800151612642565b8260a00151145b9050610cef565b5060015b816101a001518015610d045750602083015115155b8015610d1257508260400151155b8015610d1b5750805b979650505050505050565b60116020528160005260406000208181548110610d4257600080fd5b6000918252602090912060059091020180546001820154600283015460038401546004909401546001600160a01b039093169550909350919060ff1685565b610d89612586565b333214610da85760405162461bcd60e51b8152600401610a9290614bf3565b6000828152601360205260408120600101548103610dee5760405162461bcd60e51b815260206004820152600360248201526204531360ec1b6044820152606401610a92565b6000838152601360205260409020600301544211610e345760405162461bcd60e51b815260206004820152600360248201526245313160e81b6044820152606401610a92565b6000838152601360205260408120600d015460ff1615610f7357610e59848433610aea565b610e8b5760405162461bcd60e51b815260206004820152600360248201526222989960e91b6044820152606401610a92565b60008481526013602052604090206009015415801590610ebb57506000848152601360205260409020600a015415155b8015610ede57506000848152601360205260409020600581015460049091015414155b15610f6e576000848152601360209081526040808320600b810154600c9091015460129093529083209092866001811115610f1b57610f1b614952565b6001811115610f2c57610f2c614952565b815260208082019290925260409081016000908120338252909252902060010154610f579190614c26565b610f619190614c53565b610f6b9082614c67565b90505b610fb0565b610f7e848433611a0a565b610fb05760405162461bcd60e51b815260206004820152600360248201526245313360e81b6044820152606401610a92565b60008481526012602052604081206001918583811115610fd257610fd2614952565b6001811115610fe357610fe3614952565b8152602080820192909252604090810160009081203382528352818120600201805460ff19169415159490941790935586835260129091528120829185600181111561103157611031614952565b600181111561104257611042614952565b81526020808201929092526040908101600090812033825290925290206001015461106d9190614c67565b915083336001600160a01b03167f539e769c9e6663427227042dbe3a83d25d71927089d8139c461fd3aab303bfdf85856040516110ab929190614c7a565b60405180910390a381156110ed576110ed6001600160a01b037f00000000000000000000000000000000000000000000000000000000000000001633846125df565b50506110f860018055565b5050565b6111046126d9565b6004546001600160a01b0316331461112e5760405162461bcd60e51b8152600401610a9290614bd6565b6002805461ffff60a01b19169055610ae8612729565b61114c6126d9565b6004546001600160a01b031633146111765760405162461bcd60e51b8152600401610a9290614bd6565b60c88111156111ad5760405162461bcd60e51b8152602060048201526003602482015262114c0d60ea1b6044820152606401610a92565b600955565b6111ba61277e565b6111c2612586565b3332146111e15760405162461bcd60e51b8152600401610a9290614bf3565b600e5483146112025760405162461bcd60e51b8152600401610a9290614c95565b61120b836127cb565b6112275760405162461bcd60e51b8152600401610a9290614cb2565b620f424082101561124a5760405162461bcd60e51b8152600401610a9290614ccf565b61271081116112815760405162461bcd60e51b815260206004820152600360248201526204532360ec1b6044820152606401610a92565b6112b66001600160a01b037f000000000000000000000000000000000000000000000000000000000000000016333085612836565b6000838152601060209081526040808320815160a081018352338152808401868152928101878152426060830190815260808301878152845460018082018755868a5297909820845160059099020180546001600160a01b0319166001600160a01b0390991698909817885594518787015590516002808801919091559051600387015592516004860180549396929592949193909260ff1990911691849081111561136457611364614952565b0217905550505083336001600160a01b03166000805160206152e083398151915285854260008060405161139c959493929190614cec565b60405180910390a3506113ae60018055565b505050565b6004546001600160a01b031633146113dd5760405162461bcd60e51b8152600401610a9290614bd6565b6001600160a01b0381166114035760405162461bcd60e51b8152600401610a9290614d17565b600680546001600160a01b0319166001600160a01b0392909216919091179055565b61142d61286e565b6001600160a01b0381166114535760405162461bcd60e51b8152600401610a9290614d17565b600480546001600160a01b0319166001600160a01b0392909216919091179055565b61147d61286e565b610ae860006128c8565b61148f6126d9565b6004546001600160a01b031633146114b95760405162461bcd60e51b8152600401610a9290614bd6565b6001600160a01b0381166114df5760405162461bcd60e51b8152600401610a9290614d17565b600280546001600160a01b0319166001600160a01b0392909216919091179055565b61150961277e565b6005546001600160a01b031633146115335760405162461bcd60e51b8152600401610a9290614d34565b600254600160a01b900460ff166115725760405162461bcd60e51b815260206004820152600360248201526222989b60e91b6044820152606401610a92565b600254600160a81b900460ff16156115b25760405162461bcd60e51b815260206004820152600360248201526222999960e91b6044820152606401610a92565b6000806115c96115c28688614de5565b8585612918565b91509150600f5481116116045760405162461bcd60e51b815260206004820152600360248201526245313560e81b6044820152606401610a92565b80600f8190555061161a600e548360070b612bc9565b611625600e54612cfe565b600e54611633906001614c67565b600e81905561164c9067ffffffffffffffff8616613ac0565b50506002805460ff60a81b1916600160a81b17905550505050565b61166f61277e565b611677612586565b3332146116965760405162461bcd60e51b8152600401610a9290614bf3565b600e5482146116b75760405162461bcd60e51b8152600401610a9290614c95565b6116c0826127cb565b6116dc5760405162461bcd60e51b8152600401610a9290614cb2565b620f42408110156116ff5760405162461bcd60e51b8152600401610a9290614ccf565b6117346001600160a01b037f000000000000000000000000000000000000000000000000000000000000000016333084612836565b6117418260003384613b9f565b6110f860018055565b60106020528160005260406000208181548110610d4257600080fd5b61176e61277e565b6004546001600160a01b031633146117985760405162461bcd60e51b8152600401610a9290614bd6565b610ae8613d3d565b6117a86126d9565b6004546001600160a01b031633146117d25760405162461bcd60e51b8152600401610a9290614bd6565b8082106118075760405162461bcd60e51b815260206004820152600360248201526204533360ec1b6044820152606401610a92565b600791909155600855565b61181a61277e565b6005546001600160a01b031633146118445760405162461bcd60e51b8152600401610a9290614d34565b600254600160a01b900460ff1680156118665750600254600160a81b900460ff165b6118985760405162461bcd60e51b8152602060048201526003602482015262114c4d60ea1b6044820152606401610a92565b6000806118a86115c28688614de5565b91509150600f5481116118e35760405162461bcd60e51b815260206004820152600360248201526245313560e81b6044820152606401610a92565b80600f819055506118f9600e548360070b612bc9565b611904600e54612cfe565b61191f6001600e546119169190614eb5565b8360070b613d80565b6119366001600e546119319190614eb5565b613eb8565b600e54611944906001614c67565b600e81905561195d9067ffffffffffffffff8616614076565b505050505050565b61196d61277e565b6005546001600160a01b031633146119975760405162461bcd60e51b8152600401610a9290614d34565b600254600160a01b900460ff16156119d75760405162461bcd60e51b815260206004820152600360248201526245333360e81b6044820152606401610a92565b600e546119e5906001614c67565b600e8190556119f49082613ac0565b506002805460ff60a01b1916600160a01b179055565b6000838152601260205260408120819081856001811115611a2d57611a2d614952565b6001811115611a3e57611a3e614952565b8152602080820192909252604090810160009081206001600160a01b0387168252909252908190208151606081019092528054829060ff166001811115611a8757611a87614952565b6001811115611a9857611a98614952565b8152600182015460208083019190915260029092015460ff9081161515604092830152600089815260139093529120600d015491925016158015611ade57508060400151155b8015611b075750600754600086815260136020526040902060030154611b049190614c67565b42115b8015611b165750602081015115155b95945050505050565b6004546001600160a01b03163314611b495760405162461bcd60e51b8152600401610a9290614bd6565b6001600160a01b038116611b6f5760405162461bcd60e51b8152600401610a9290614d17565b600580546001600160a01b0319166001600160a01b0392909216919091179055565b611b996126d9565b6004546001600160a01b03163314611bc35760405162461bcd60e51b8152600401610a9290614bd6565b611bcc816141a1565b50565b611bd761277e565b611bdf612586565b333214611bfe5760405162461bcd60e51b8152600401610a9290614bf3565b600e548214611c1f5760405162461bcd60e51b8152600401610a9290614c95565b611c28826127cb565b611c445760405162461bcd60e51b8152600401610a9290614cb2565b620f4240811015611c675760405162461bcd60e51b8152600401610a9290614ccf565b611c9c6001600160a01b037f000000000000000000000000000000000000000000000000000000000000000016333084612836565b6117418260013384613b9f565b611cb161277e565b611cb9612586565b333214611cd85760405162461bcd60e51b8152600401610a9290614bf3565b600e548314611cf95760405162461bcd60e51b8152600401610a9290614c95565b611d02836127cb565b611d1e5760405162461bcd60e51b8152600401610a9290614cb2565b620f4240821015611d415760405162461bcd60e51b8152600401610a9290614ccf565b6127108111611d785760405162461bcd60e51b815260206004820152600360248201526204532360ec1b6044820152606401610a92565b611dad6001600160a01b037f000000000000000000000000000000000000000000000000000000000000000016333085612836565b6000838152601160209081526040808320815160a081018352338152808401868152928101878152426060830190815260808301878152845460018082018755868a5297909820845160059099020180546001600160a01b0319166001600160a01b0390991698909817885594518787015590516002808801919091559051600387015592516004860180549396929592949193909260ff19909116918490811115611e5b57611e5b614952565b0217905550505083336001600160a01b03166000805160206152e08339815191528585426001600060405161139c959493929190614cec565b611e9c612586565b333214611ebb5760405162461bcd60e51b8152600401610a9290614bf3565b611ec4336141a1565b610ae860018055565b60146020528160005260406000208181548110611ee957600080fd5b90600052602060002001600091509150505481565b611f06612586565b333214611f255760405162461bcd60e51b8152600401610a9290614bf3565b6000848152601360205260408120600101549003611f6b5760405162461bcd60e51b815260206004820152600360248201526245323160e81b6044820152606401610a92565b6000848152601360205260409020600201544210611fb15760405162461bcd60e51b815260206004820152600360248201526222991960e91b6044820152606401610a92565b6000836001811115611fc557611fc5614952565b0361228d5760005b60008581526010602052604090205481101561228757600085815260106020526040902080543391908390811061200657612006614ec8565b60009182526020909120600590910201546001600160a01b031614801561205f5750600085815260106020526040902080548491908390811061204b5761204b614ec8565b906000526020600020906005020160030154145b801561209d5750600085815260106020526040902080548391908390811061208957612089614ec8565b906000526020600020906005020160020154145b15612275576000858152601060205260409020805460029190839081106120c6576120c6614ec8565b60009182526020909120600460059092020101805460ff191660018360028111156120f3576120f3614952565b0217905550600085815260106020526040812080548390811061211857612118614ec8565b90600052602060002090600502016002015411156121a157600085815260106020526040902080546121a19133918490811061215657612156614ec8565b9060005260206000209060050201600201547f00000000000000000000000000000000000000000000000000000000000000006001600160a01b03166125df9092919063ffffffff16565b60008581526010602052604090208054869133916000805160206152e08339815191529190859081106121d6576121d6614ec8565b906000526020600020906005020160020154601060008a8152602001908152602001600020858154811061220c5761220c614ec8565b906000526020600020906005020160010154601060008b8152602001908152602001600020868154811061224257612242614ec8565b906000526020600020906005020160030154896002604051612268959493929190614cec565b60405180910390a3612287565b8061227f81614ede565b915050611fcd565b50612501565b60005b6000858152601160205260409020548110156124ff5760008581526011602052604090208054339190839081106122c9576122c9614ec8565b60009182526020909120600590910201546001600160a01b03161480156123225750600085815260116020526040902080548491908390811061230e5761230e614ec8565b906000526020600020906005020160030154145b80156123605750600085815260116020526040902080548391908390811061234c5761234c614ec8565b906000526020600020906005020160020154145b156124ed5760008581526011602052604090208054600291908390811061238957612389614ec8565b60009182526020909120600460059092020101805460ff191660018360028111156123b6576123b6614952565b021790555060008581526011602052604081208054839081106123db576123db614ec8565b906000526020600020906005020160020154111561241957600085815260116020526040902080546124199133918490811061215657612156614ec8565b60008581526011602052604090208054869133916000805160206152e083398151915291908590811061244e5761244e614ec8565b906000526020600020906005020160020154601160008a8152602001908152602001600020858154811061248457612484614ec8565b906000526020600020906005020160010154601160008b815260200190815260200160002086815481106124ba576124ba614ec8565b9060005260206000209060050201600301548960026040516124e0959493929190614cec565b60405180910390a36124ff565b806124f781614ede565b915050612290565b505b61250a60018055565b50505050565b61251861286e565b6001600160a01b03811661257d5760405162461bcd60e51b815260206004820152602660248201527f4f776e61626c653a206e6577206f776e657220697320746865207a65726f206160448201526564647265737360d01b6064820152608401610a92565b611bcc816128c8565b6002600154036125d85760405162461bcd60e51b815260206004820152601f60248201527f5265656e7472616e637947756172643a207265656e7472616e742063616c6c006044820152606401610a92565b6002600155565b6040516001600160a01b0383166024820152604481018290526113ae90849063a9059cbb60e01b906064015b60408051601f198184030181529190526020810180516001600160e01b03166001600160e01b03199093169290921790915261459f565b60006001600d5460ff16600281111561265d5761265d614952565b0361268d57612710600c54836126739190614ef7565b61267d9190614f27565b6126879083614f55565b92915050565b6002600d5460ff1660028111156126a6576126a6614952565b036126d057612710600c54836126bc9190614ef7565b6126c69190614f27565b6126879083614f7d565b5090565b919050565b600054600160a01b900460ff16610ae85760405162461bcd60e51b815260206004820152601460248201527314185d5cd8589b194e881b9bdd081c185d5cd95960621b6044820152606401610a92565b6127316126d9565b6000805460ff60a01b191690557f5db9ee0a495bf2e6ff9c91a7834c1ba4fdd244a5e8aa4e537bd38aeae4b073aa335b6040516001600160a01b03909116815260200160405180910390a1565b600054600160a01b900460ff1615610ae85760405162461bcd60e51b815260206004820152601060248201526f14185d5cd8589b194e881c185d5cd95960821b6044820152606401610a92565b600081815260136020526040812060010154158015906127fb575060008281526013602052604090206002015415155b8015612817575060008281526013602052604090206001015442115b8015612687575050600090815260136020526040902060020154421090565b6040516001600160a01b038085166024830152831660448201526064810182905261250a9085906323b872dd60e01b9060840161260b565b6000546001600160a01b03163314610ae85760405162461bcd60e51b815260206004820181905260248201527f4f776e61626c653a2063616c6c6572206973206e6f7420746865206f776e65726044820152606401610a92565b600080546001600160a01b038381166001600160a01b0319831681178455604051919092169283917f8be0079c531659141344cd1fd0a4f28419497f9722a3daafe3b4186f6b6457e09190a35050565b60408051600180825281830190925260009182918291602080830190803683370190505090506003548160008151811061295457612954614ec8565b602090810291909101015260025460405163d47eed4560e01b81526000916001600160a01b03169063d47eed4590612990908a90600401615049565b602060405180830381865afa1580156129ad573d6000803e3d6000fd5b505050506040513d601f19601f820116820180604052508101906129d1919061505c565b90508415612a65576002546001600160a01b0316634716e9c58289858a6129f981600a615075565b6040518663ffffffff1660e01b8152600401612a189493929190615096565b60006040518083038185885af1158015612a36573d6000803e3d6000fd5b50505050506040513d6000823e601f3d908101601f19168201604052612a5f9190810190615198565b50612aca565b600254604051631df3cbc560e31b81526001600160a01b039091169063ef9e5e28908390612a97908b90600401615049565b6000604051808303818588803b158015612ab057600080fd5b505af1158015612ac4573d6000803e3d6000fd5b50505050505b6002546003546040516331d98b3f60e01b81526001600160a01b03909216916331d98b3f91612aff9160040190815260200190565b608060405180830381865afa158015612b1c573d6000803e3d6000fd5b505050506040513d601f19601f82011682018060405250810190612b409190615267565b516002546003546040516331d98b3f60e01b81526001600160a01b03909216916331d98b3f91612b769160040190815260200190565b608060405180830381865afa158015612b93573d6000803e3d6000fd5b505050506040513d601f19601f82011682018060405250810190612bb79190615267565b60600151935093505050935093915050565b6000828152601360205260408120600101549003612c0f5760405162461bcd60e51b815260206004820152600360248201526245323360e81b6044820152606401610a92565b600082815260136020526040902060020154421015612c565760405162461bcd60e51b8152602060048201526003602482015262114c8d60ea1b6044820152606401610a92565b600754600083815260136020526040902060020154612c759190614c67565b421115612caa5760405162461bcd60e51b815260206004820152600360248201526245323560e81b6044820152606401610a92565b600082815260136020526040908190206004018290555182907f66cd2a038fc7d4023a2b1835cb7cb5d039bcbe0d2b93d95a7709363a23eba1c090612cf29084815260200190565b60405180910390a25050565b6040805160608101825260008381526013602090815283822060088101548452600981015482850152600a015483850152848252601081528382208054855181840281018401909652808652939492938493612e009390929190859084015b82821015612df75760008481526020908190206040805160a0810182526005860290920180546001600160a01b0316835260018101549383019390935260028084015491830191909152600383015460608301526004830154919291608084019160ff90911690811115612dd357612dd3614952565b6002811115612de457612de4614952565b8152505081526020019060010190612d5d565b50505050614674565b90506000612ed460116000878152602001908152602001600020805480602002602001604051908101604052809291908181526020016000905b82821015612df75760008481526020908190206040805160a0810182526005860290920180546001600160a01b0316835260018101549383019390935260028084015491830191909152600383015460608301526004830154919291608084019160ff90911690811115612eb057612eb0614952565b6002811115612ec157612ec1614952565b8152505081526020019060010190612e3a565b90505b60005b8251811015613079576000838281518110612ef757612ef7614ec8565b6020026020010151604001518660200151612f129190614c67565b612710858481518110612f2757612f27614ec8565b6020026020010151604001518860000151612f429190614c67565b612f4c9190614c26565b612f569190614c53565b905080848381518110612f6b57612f6b614ec8565b60200260200101516020015111158015612fb357506000848381518110612f9457612f94614ec8565b6020026020010151608001516002811115612fb157612fb1614952565b145b1561306657838281518110612fca57612fca614ec8565b6020026020010151604001518660000151612fe59190614c67565b86528351849083908110612ffb57612ffb614ec8565b60200260200101516040015186602001516130169190614c67565b6020870152835160019085908490811061303257613032614ec8565b602002602001015160800190600281111561304f5761304f614952565b9081600281111561306257613062614952565b9052505b508061307181614ede565b915050612eda565b506000925060005b815181101561322457600082828151811061309e5761309e614ec8565b60200260200101516040015186604001516130b99190614c67565b6127108484815181106130ce576130ce614ec8565b60200260200101516040015188600001516130e99190614c67565b6130f39190614c26565b6130fd9190614c53565b90508083838151811061311257613112614ec8565b6020026020010151602001511115801561315a5750600083838151811061313b5761313b614ec8565b602002602001015160800151600281111561315857613158614952565b145b156132115782828151811061317157613171614ec8565b602002602001015160400151866000015161318c9190614c67565b865282518390839081106131a2576131a2614ec8565b60200260200101516040015186604001516131bd9190614c67565b604087015282516001908490849081106131d9576131d9614ec8565b60200260200101516080019060028111156131f6576131f6614952565b9081600281111561320957613209614952565b905250600194505b508061321c81614ede565b915050613081565b5082612ed75760005b82518110156136a057600283828151811061324a5761324a614ec8565b602002602001015160800151600281111561326757613267614952565b1461368e5760005b60008781526010602052604090205481101561368c5760008781526010602052604090208054829081106132a5576132a5614ec8565b600091825260209091206005909102015484516001600160a01b03909116908590849081106132d6576132d6614ec8565b6020026020010151600001516001600160a01b03161480156133455750600087815260106020526040902080548290811061331357613313614ec8565b90600052602060002090600502016003015484838151811061333757613337614ec8565b602002602001015160600151145b1561367a57600084838151811061335e5761335e614ec8565b602002602001015160800151600281111561337b5761337b614952565b03613501576000878152601060205260409020805460029190839081106133a4576133a4614ec8565b60009182526020909120600460059092020101805460ff191660018360028111156133d1576133d1614952565b021790555061344e8483815181106133eb576133eb614ec8565b60200260200101516000015185848151811061340957613409614ec8565b6020026020010151604001517f00000000000000000000000000000000000000000000000000000000000000006001600160a01b03166125df9092919063ffffffff16565b8684838151811061346157613461614ec8565b6020026020010151600001516001600160a01b03166000805160206152e083398151915286858151811061349757613497614ec8565b6020026020010151604001518786815181106134b5576134b5614ec8565b6020026020010151602001518887815181106134d3576134d3614ec8565b602002602001015160600151600060026040516134f4959493929190614cec565b60405180910390a361368c565b600184838151811061351557613515614ec8565b602002602001015160800151600281111561353257613532614952565b0361367a5760008781526010602052604090208054600191908390811061355b5761355b614ec8565b60009182526020909120600460059092020101805460ff1916600183600281111561358857613588614952565b02179055506135d48760008685815181106135a5576135a5614ec8565b6020026020010151600001518786815181106135c3576135c3614ec8565b602002602001015160400151613b9f565b868483815181106135e7576135e7614ec8565b6020026020010151600001516001600160a01b03166000805160206152e083398151915286858151811061361d5761361d614ec8565b60200260200101516040015187868151811061363b5761363b614ec8565b60200260200101516020015188878151811061365957613659614ec8565b602002602001015160600151600060016040516134f4959493929190614cec565b8061368481614ede565b91505061326f565b505b8061369881614ede565b91505061322d565b5060005b815181101561195d5760028282815181106136c1576136c1614ec8565b60200260200101516080015160028111156136de576136de614952565b14613aae5760005b600087815260116020526040902054811015613aac57600087815260116020526040902080548290811061371c5761371c614ec8565b600091825260209091206005909102015483516001600160a01b039091169084908490811061374d5761374d614ec8565b6020026020010151600001516001600160a01b03161480156137bc5750600087815260116020526040902080548290811061378a5761378a614ec8565b9060005260206000209060050201600301548383815181106137ae576137ae614ec8565b602002602001015160600151145b15613a9a5760008383815181106137d5576137d5614ec8565b60200260200101516080015160028111156137f2576137f2614952565b036139335760008781526011602052604090208054600291908390811061381b5761381b614ec8565b60009182526020909120600460059092020101805460ff1916600183600281111561384857613848614952565b021790555061388083838151811061386257613862614ec8565b60200260200101516000015184848151811061340957613409614ec8565b8683838151811061389357613893614ec8565b6020026020010151600001516001600160a01b03166000805160206152e08339815191528585815181106138c9576138c9614ec8565b6020026020010151604001518686815181106138e7576138e7614ec8565b60200260200101516020015187878151811061390557613905614ec8565b60200260200101516060015160016002604051613926959493929190614cec565b60405180910390a3613aac565b600183838151811061394757613947614ec8565b602002602001015160800151600281111561396457613964614952565b03613a9a5760008781526011602052604090208054600191908390811061398d5761398d614ec8565b60009182526020909120600460059092020101805460ff191660018360028111156139ba576139ba614952565b02179055506139f58760018585815181106139d7576139d7614ec8565b6020026020010151600001518686815181106135c3576135c3614ec8565b86838381518110613a0857613a08614ec8565b6020026020010151600001516001600160a01b03166000805160206152e0833981519152858581518110613a3e57613a3e614ec8565b602002602001015160400151868681518110613a5c57613a5c614ec8565b602002602001015160200151878781518110613a7a57613a7a614ec8565b602002602001015160600151600180604051613926959493929190614cec565b80613aa481614ede565b9150506136e6565b505b80613ab881614ede565b9150506136a4565b80421015613af65760405162461bcd60e51b815260206004820152600360248201526245313960e81b6044820152606401610a92565b6000828152601360205260409020600101819055600854613b179082614c67565b6000838152601360205260409020600290810191909155600854613b3a91614c26565b613b449082614c67565b6000838152601360205260408082206003810193909355848355600890920155600c54600d54915184927f69d0a9502ff90aa999e8f8bc141c62ed4df5c4f5b6d580ebaf959e71d9a4651592612cf292909160ff1690615283565b600084815260126020526040812081856001811115613bc057613bc0614952565b6001811115613bd157613bd1614952565b8152602080820192909252604090810160009081206001600160a01b0387168252909252902080549091508490829060ff191660018381811115613c1757613c17614952565b0217905550818160010154613c2c9190614c67565b6001808301919091556001600160a01b038416600090815260146020908152604080832080549485018155835281832090930188905587825260139052206008810154613c7a908490614c67565b60088201556000856001811115613c9357613c93614952565b03613ce957828160090154613ca89190614c67565b6009820155604051838152869033907fb8fbac9c09ae0f091568eaeb3a883c04d7497dc3f0a27249b66406ce9bbb19f89060200160405180910390a361195d565b8281600a0154613cf99190614c67565b600a820155604051838152869033907fdd17ecfb3bae4e896d8a39f9f66d8123acc4fd059a83f08a9818403b37d2b6f79060200160405180910390a3505050505050565b613d4561277e565b6000805460ff60a01b1916600160a01b1790557f62e78cea01bee320cd4e420270b5ea74000d11b0c9f74754ebdbfc544b05a2586127613390565b6000828152601360205260408120600201549003613dc65760405162461bcd60e51b815260206004820152600360248201526222991b60e91b6044820152606401610a92565b600082815260136020526040902060030154421015613e0d5760405162461bcd60e51b815260206004820152600360248201526245323760e81b6044820152606401610a92565b600754600083815260136020526040902060030154613e2c9190614c67565b421115613e615760405162461bcd60e51b815260206004820152600360248201526208a64760eb1b6044820152606401610a92565b6000828152601360205260409081902060058101839055600d01805460ff191660011790555182907fcee1a52460a80134ed9fbda5e300b8aecaf44ba60b7fe91a80a3fef96d5c5b7a90612cf29084815260200190565b6000818152601360205260409020600b0154158015613ee657506000818152601360205260409020600c0154155b613f185760405162461bcd60e51b815260206004820152600360248201526245323960e81b6044820152606401610a92565b60008181526013602052604081206009810154909190819081901580613f405750600a840154155b15613f5357506000915081905080614004565b613f608460040154612642565b84600501541315613faa578360090154925061271060095485600a0154613f879190614c26565b613f919190614c53565b91508184600a0154613fa39190614eb5565b9050614004565b613fb78460040154612642565b84600501541215613ffa5783600a015492506127106009548560090154613fde9190614c26565b613fe89190614c53565b9150818460090154613fa39190614eb5565b5060009150819050805b600b8401839055600c8401819055600a8054839190600090614027908490614c67565b9091555050604080518481526020810183905290810183905285907f6dfdfcb09c8804d0058826cd2539f1acfbe3cb887c9be03d928035bce0f1a58d9060600160405180910390a25050505050565b600254600160a01b900460ff166140b55760405162461bcd60e51b815260206004820152600360248201526222989b60e91b6044820152606401610a92565b601360006140c4600285614eb5565b81526020019081526020016000206003015460000361410b5760405162461bcd60e51b815260206004820152600360248201526245313760e81b6044820152606401610a92565b6013600061411a600285614eb5565b8152602001908152602001600020600301544210156141615760405162461bcd60e51b815260206004820152600360248201526208a62760eb1b6044820152606401610a92565b804210156141975760405162461bcd60e51b815260206004820152600360248201526245313960e81b6044820152606401610a92565b6110f88282613ac0565b600060015b600e5481116145645760008181526013602052604090206002015415806141ea57506007546000828152601360205260409020600301546141e79190614c67565b42105b61455257600081815260136020908152604080832081516101c081018352815481526001820154938101939093526002810154918301919091526003810154606083015260048101546080830152600581015460a0830152600681015460c0830152600781015460e083015260088101546101008301526009810154610120830152600a810154610140830152600b810154610160830152600c810154610180830152600d015460ff1615156101a0820152905b6001811161454f57600081156142b55760016142b8565b60005b905060006142c7858389610aea565b156144005760008461012001511180156142e657506000846101400151115b80156142fa57508360a00151846080015114155b156143935761016084015161018085015160008781526012602052604081209085600181111561432c5761432c614952565b600181111561433d5761433d614952565b815260200190815260200160002060008a6001600160a01b03166001600160a01b031681526020019081526020016000206001015461437c9190614c26565b6143869190614c53565b6143909082614c67565b90505b6000858152601260205260408120908360018111156143b4576143b4614952565b60018111156143c5576143c5614952565b8152602080820192909252604090810160009081206001600160a01b038b1682529092529020600101546143f99082614c67565b9050614479565b61440b858389611a0a565b156144795760008581526012602052604081209083600181111561443157614431614952565b600181111561444257614442614952565b8152602080820192909252604090810160009081206001600160a01b038b1682529092529020600101546144769082614c67565b90505b801561453b57600085815260126020526040812060019184838111156144a1576144a1614952565b60018111156144b2576144b2614952565b8152602080820192909252604090810160009081206001600160a01b038c1682529092529020600201805460ff19169115159190911790556144f48187614c67565b955084876001600160a01b03167f539e769c9e6663427227042dbe3a83d25d71927089d8139c461fd3aab303bfdf8484604051614532929190614c7a565b60405180910390a35b8261454581614ede565b935050505061429e565b50505b8061455c81614ede565b9150506141a6565b5080156110f8576110f86001600160a01b037f00000000000000000000000000000000000000000000000000000000000000001683836125df565b60006145f4826040518060400160405280602081526020017f5361666545524332303a206c6f772d6c6576656c2063616c6c206661696c6564815250856001600160a01b03166147709092919063ffffffff16565b90508051600014806146155750808060200190518101906146159190615293565b6113ae5760405162461bcd60e51b815260206004820152602a60248201527f5361666545524332303a204552433230206f7065726174696f6e20646964206e6044820152691bdd081cdd58d8d9595960b21b6064820152608401610a92565b606060015b82518110156147695760005b818110156147565783818151811061469f5761469f614ec8565b6020026020010151602001518483815181106146bd576146bd614ec8565b60200260200101516020015110156147445760008483815181106146e3576146e3614ec8565b602002602001015190508482815181106146ff576146ff614ec8565b602002602001015185848151811061471957614719614ec8565b60200260200101819052508085838151811061473757614737614ec8565b6020026020010181905250505b8061474e81614ede565b915050614685565b508061476181614ede565b915050614679565b5090919050565b606061477f8484600085614787565b949350505050565b6060824710156147e85760405162461bcd60e51b815260206004820152602660248201527f416464726573733a20696e73756666696369656e742062616c616e636520666f6044820152651c8818d85b1b60d21b6064820152608401610a92565b600080866001600160a01b0316858760405161480491906152b0565b60006040518083038185875af1925050503d8060008114614841576040519150601f19603f3d011682016040523d82523d6000602084013e614846565b606091505b5091509150610d1b87838387606083156148c15782516000036148ba576001600160a01b0385163b6148ba5760405162461bcd60e51b815260206004820152601d60248201527f416464726573733a2063616c6c20746f206e6f6e2d636f6e74726163740000006044820152606401610a92565b508161477f565b61477f83838151156148d65781518083602001fd5b8060405162461bcd60e51b8152600401610a9291906152cc565b8035600281106126d457600080fd5b80356001600160a01b03811681146126d457600080fd5b60008060006060848603121561492b57600080fd5b8335925061493b602085016148f0565b9150614949604085016148ff565b90509250925092565b634e487b7160e01b600052602160045260246000fd5b6002811061497857614978614952565b9052565b6060810161498a8286614968565b8360208301528215156040830152949350505050565b600080604083850312156149b357600080fd5b50508035926020909101359150565b60038110611bcc57611bcc614952565b6001600160a01b038616815260208101859052604081018490526060810183905260a08101614a00836149c2565b8260808301529695505050505050565b60008060408385031215614a2357600080fd5b82359150614a33602084016148f0565b90509250929050565b600060208284031215614a4e57600080fd5b5035919050565b600080600060608486031215614a6a57600080fd5b505081359360208301359350604090920135919050565b600060208284031215614a9357600080fd5b614a9c826148ff565b9392505050565b67ffffffffffffffff81168114611bcc57600080fd5b8015158114611bcc57600080fd5b60008060008060608587031215614add57600080fd5b843567ffffffffffffffff80821115614af557600080fd5b818701915087601f830112614b0957600080fd5b813581811115614b1857600080fd5b8860208260051b8501011115614b2d57600080fd5b60209283019650945050850135614b4381614aa3565b91506040850135614b5381614ab9565b939692955090935050565b60208101614b6b836149c2565b91905290565b60008060408385031215614b8457600080fd5b614b8d836148ff565b946020939093013593505050565b60008060008060808587031215614bb157600080fd5b84359350614bc1602086016148f0565b93969395505050506040820135916060013590565b60208082526003908201526245303160e81b604082015260600190565b60208082526003908201526245303360e81b604082015260600190565b634e487b7160e01b600052601160045260246000fd5b808202811582820484141761268757612687614c10565b634e487b7160e01b600052601260045260246000fd5b600082614c6257614c62614c3d565b500490565b8082018082111561268757612687614c10565b60408101614c888285614968565b8260208301529392505050565b60208082526003908201526245303760e81b604082015260600190565b60208082526003908201526208a60760eb1b604082015260600190565b60208082526003908201526245303960e81b604082015260600190565b858152602081018590526040810184905260a08101614d0e6060830185614968565b614a00836149c2565b60208082526003908201526245333160e81b604082015260600190565b60208082526003908201526222981960e91b604082015260600190565b634e487b7160e01b600052604160045260246000fd5b6040516060810167ffffffffffffffff81118282101715614d8a57614d8a614d51565b60405290565b604051601f8201601f1916810167ffffffffffffffff81118282101715614db957614db9614d51565b604052919050565b600067ffffffffffffffff821115614ddb57614ddb614d51565b5060051b60200190565b6000614df8614df384614dc1565b614d90565b80848252602080830192508560051b850136811115614e1657600080fd5b855b81811015614ea957803567ffffffffffffffff80821115614e395760008081fd5b90880190601f3681840112614e4e5760008081fd5b823582811115614e6057614e60614d51565b614e71818301601f19168801614d90565b92508083523687828601011115614e8a57600091508182fd5b8087850188850137600090830187015250865250938201938201614e18565b50919695505050505050565b8181038181111561268757612687614c10565b634e487b7160e01b600052603260045260246000fd5b600060018201614ef057614ef0614c10565b5060010190565b80820260008212600160ff1b84141615614f1357614f13614c10565b818105831482151761268757612687614c10565b600082614f3657614f36614c3d565b600160ff1b821460001984141615614f5057614f50614c10565b500590565b8082018281126000831280158216821582161715614f7557614f75614c10565b505092915050565b8181036000831280158383131683831282161715614f9d57614f9d614c10565b5092915050565b60005b83811015614fbf578181015183820152602001614fa7565b50506000910152565b60008151808452614fe0816020860160208601614fa4565b601f01601f19169290920160200192915050565b600081518084526020808501808196508360051b8101915082860160005b8581101561503c57828403895261502a848351614fc8565b98850198935090840190600101615012565b5091979650505050505050565b602081526000614a9c6020830184614ff4565b60006020828403121561506e57600080fd5b5051919050565b67ffffffffffffffff818116838216019080821115614f9d57614f9d614c10565b6080815260006150a96080830187614ff4565b82810360208481019190915286518083528782019282019060005b818110156150e0578451835293830193918301916001016150c4565b505067ffffffffffffffff9687166040860152949095166060909301929092525090949350505050565b60006080828403121561511c57600080fd5b6040516080810181811067ffffffffffffffff8211171561513f5761513f614d51565b806040525080915082518060070b811461515857600080fd5b8152602083015161516881614aa3565b60208201526040830151600381900b811461518257600080fd5b6040820152606092830151920191909152919050565b600060208083850312156151ab57600080fd5b825167ffffffffffffffff8111156151c257600080fd5b8301601f810185136151d357600080fd5b80516151e1614df382614dc1565b818152610120918202830184019184820191908884111561520157600080fd5b938501935b8385101561525b5780858a03121561521e5760008081fd5b615226614d67565b855181526152368a88880161510a565b878201526152478a60a0880161510a565b604082015283529384019391850191615206565b50979650505050505050565b60006080828403121561527957600080fd5b614a9c838361510a565b82815260408101614c88836149c2565b6000602082840312156152a557600080fd5b8151614a9c81614ab9565b600082516152c2818460208701614fa4565b9190910192915050565b602081526000614a9c6020830184614fc856fed667d180124c86a453ad1f534a3015bb704a3276ea40b1b7212c5af75152f1f5a26469706673582212202efff2d6bdd2bd08450c5d25650f453b6a0f51a304ee1f7013645ab3ed05f80764736f6c63430008150033",
    "linkReferences": {}
  },
  "methodIdentifiers": {
    "BASE()": "ec342ad0",
    "DEFAULT_BUFFER_SECONDS()": "be2c5afb",
    "DEFAULT_INTERVAL_SECONDS()": "f0260072",
    "DEFAULT_MIN_PARTICIPATE_AMOUNT()": "ae66e52f",
    "MAX_COMMISSION_FEE()": "19f078c2",
    "adminAddress()": "fc6f9468",
    "bufferSeconds()": "eaba2361",
    "cancelLimitOrder(uint256,uint8,uint256,uint256)": "eae01573",
    "claim(uint256,uint8)": "2faf3ea6",
    "claimAll()": "d1058e59",
    "claimTreasury()": "003bdc74",
    "claimable(uint256,uint8,address)": "10e69d96",
    "commissionfee()": "7b6c0e12",
    "currentEpoch()": "76671808",
    "executeRound(bytes[],uint64,bool)": "9fb77386",
    "genesisOpenOnce()": "bc18639c",
    "genesisOpenRound(uint256)": "a7dd3139",
    "genesisStartOnce()": "f7fdec28",
    "genesisStartRound(bytes[],uint64,bool)": "81017492",
    "intervalSeconds()": "7d1cd04f",
    "lastCommittedPublishTime()": "2a8b5a30",
    "ledger(uint256,uint8,address)": "1978804b",
    "operatorAddress()": "127effb2",
    "operatorVaultAddress()": "ea92a7c5",
    "oracle()": "7dc0d1d0",
    "overLimitOrders(uint256,uint256)": "841ab068",
    "owner()": "8da5cb5b",
    "participantRate()": "688a1d8d",
    "participateLimitOver(uint256,uint256,uint256)": "5dc6b022",
    "participateLimitUnder(uint256,uint256,uint256)": "c894b51e",
    "participateOver(uint256,uint256)": "8170e969",
    "participateUnder(uint256,uint256)": "c0183c3e",
    "pause()": "8456cb59",
    "paused()": "5c975abb",
    "priceId()": "31189334",
    "redeemAll(address)": "be399be5",
    "refundable(uint256,uint8,address)": "a9f50295",
    "renounceOwnership()": "715018a6",
    "rounds(uint256)": "8c65c81f",
    "setAdmin(address)": "704b6c02",
    "setBufferAndIntervalSeconds(uint256,uint256)": "890dc766",
    "setCommissionfee(uint256)": "4c92b255",
    "setOperator(address)": "b3ab15fb",
    "setOperatorVault(address)": "65b67b8f",
    "setOracle(address)": "7adbf973",
    "strategyRate()": "89d04c9f",
    "strategyType()": "82ccd330",
    "token()": "fc0c546a",
    "transferOwnership(address)": "f2fde38b",
    "treasuryAmount()": "368acb09",
    "underLimitOrders(uint256,uint256)": "2bcc5f94",
    "unpause()": "3f4ba83a",
    "userRounds(address,uint256)": "dd1f7596"
  },
  "id": 2
}